:020000006E2C64
:0E000600F201F101F001F801F30100300800F1
:10001400FB14FB1F1428FF30F300F200F100F00082
:08002400FA0DF20CFF30080098
:08002C00FA1FF2130030080076
:100034007B15FB1F24280130F300F201F101F001CC
:08004400FA0DF20CFF30080078
:10004C00A0017208031D3B287108F2007008F10032
:10005C00F001A0157208031D3B287108F200F10194
:10006C00A01120167208031949282008F302031D59
:10007C00031C4D280310F21B5128F00DF10DF20D4D
:10008C00F30B41284D280130FC000320542802308A
:0E009C00FC001A2054280430FC001620080036
:1000AA0083120313FB01FA01F9018030F800F10C05
:1000BA00F00C031C69287408F90775080318750FF2
:1000CA00FA070318FB0A0310F01F71287408FA07CD
:1000DA0075080318750FFB07FB0CFA0CF90CF80CE2
:1000EA00031C5C287B08F3007A08F2007908F10007
:0600FA007808F000080088
:100100007C18B628FC1887287C19D5288028A001DF
:100110007208031DA7287108F2007008F100780822
:10012000F000F801A0157208031DA7287108F2005D
:100130007008F100F001A01120167208031DA72815
:100140007108F200F101A01572080319C9282008EE
:10015000F302031D031CCD280310F21BB628F80D73
:10016000F00DF10DF20DF30BAD28CD287B1B701CAB
:10017000D128F81FD128F00A0319F10A0319F20A4D
:10018000031DD128F20CF10CF00CF30A0319D52849
:10019000D1280130FC000320D8280230FC001A20AE
:1001A000D8280430FC001620D8280830FC000A208B
:0401B0000000080043
:0E01B400831203135A088A00590882000800BB
:1001C2008312031372087606A000F801F90173087E
:1001D2007702031C04297708FD007308F7007D08E5
:1001E200F3007608FD007208F6007D08F20075083B
:1001F200FD007108F5007D08F1007408FD0070082B
:10020200F4007D08F000770803197D297208FA00CE
:10021200F217F61777087302F70003193729083027
:100222007702031C2D29F7007408F9007508F40001
:100232007608F500F60108307702031C2D29F70035
:100242007408F9007508F400F50108307702031C00
:100252002D297A08F2007D2977080319372903101E
:10026200F60CF50CF40CF90CF70B3029A01F4429FD
:10027200F909F409F509F609F90A0319F40A031947
:10028200F50A0319F60A7908F80774080318740FB7
:10029200F00775080318750FF10776080318760F33
:1002A200F207A01B5D29031C6D29F20CF10CF00C66
:1002B200F80CF30F6D29792903187129F809F0094F
:1002C200F109F209F80A0319F00A0319F10A0319EC
:1002D200F20A8030FA0675290130FC0080207F295D
:1002E2000230FC0080207F290430FC0026207F2978
:1002F2000830FC000A207F290030FC0000000800C2
:100302007B14FB1F8C29F201FA1FFF30F200F1006F
:0A031200F000FA0DF20CFF300800B5
:10031C00831603131208013EF000F1010318F10AD1
:10032C0083126B08F400F50155200630F2007008BA
:10033C00F4007108F50072080319A929F50CF40CE6
:10034C00F513FF3EA2290430F1007408F000710887
:10035C000319B429F00D7010FF3EAE293030700532
:10036C00F3007408F0007508F100F10CF00CF113B7
:10037C00F10CF00CF11370089B000F309D05730805
:04038C009D040800C4
:10039000710DF80DF90D7408F8027508031C750F3E
:1003A000F902F00DF10D0F30FC00710DF80DF90D93
:1003B0007408701CE129F8027508031C750FF90216
:1003C000E629F80775080318750FF907F00DF10D08
:1003D000FC0BD5297018F2297408F8077508031862
:0803E000750FF9070000080089
:1003E800831603131208013EF000F1010318F10A05
:1003F80083126B08F400F50155200630F2007008EE
:10040800F4007108F500720803190F2AF50CF40CB2
:10041800F513FF3E082A0430F1007408F000710853
:1004280003191A2AF00D7010FF3E142A3030700597
:10043800F3007408F0007508F100F10CF00CF113EA
:10044800F10CF00CF113700895000F309705730844
:0404580097040800FD
:10045C0083120313FB017308031D77080319852A04
:10046C0072087606FA007708F3077E30031C422ADE
:10047C00F3020318882A452AF302031C8B2A7208FC
:10048C00F8007108FC007008FD00F817F61703104F
:10049C00F201F101F0011830A0007D1C5F2A7408F4
:1004AC00F00775080318750FF10776080318760F17
:1004BC00F207F20CF10CF00CF80CFC0CFD0C031018
:1004CC00A00B532AF21B6F2AF80DF00DF10DF20D53
:1004DC00F3037B1B701C812AF81F812AF00A031975
:1004EC00F10A0319F20A031D812AF20CF10CF00C2B
:1004FC00F30A0319882AFA1FF21300308D2A0130EF
:10050C0003208D2A02300A208D2A04301A20000084
:02051C000800D5
:10051E00831203137008F8007108F000F101F20164
:10052E00F301FB01FC019630F300FA01F01FA52A3E
:10053E00F809F009F80A0319F00AFA177008F10021
:0C054E007808F000F801F20126200800F7
:10055A008312031373087706031DC02A72087606EE
:10056A00031DC02A71087506031DC02A7008740687
:0C057A0003190315080003110800080015
:10058600831203137408003A031DD22A7508003A31
:10059600031DD22AFF30F0007F30F1002B2B83128F
:1005A6000313FD01F901F801710870040319003401
:1005B60071087506FA00FA1BFD09FB01F51FE82A0A
:1005C600F409F509F40A0319F50AF11FEF2AF009EF
:1005D600F109F00A0319F10A71087504FA00FA1B09
:1005E600042BC8217B18172BFD1F0034F009F109D5
:1005F600F00A0319F10AF809F909F80A0319F90AC0
:100606000034F51F132BF11B0F2B7108F90070082E
:10061600F800F101F001F72AF101F001F00A0034C7
:10062600F109F009FB0AF42AF80A0319F90A740811
:100636007802031DF72A75087902031DF72AF901C6
:10064600F801F00A0319F10AF11FF72A0000FF3436
:0206560008009A
:0C065800831203138030F606E120080036
:1006640083120313FB01730803196F2B7208FA003A
:10067400F2178E30F302F31F722BF309F30A0830DA
:100684007302031C552BF300F10D7208F100F20103
:1006940008307302031C552BF300F10DF1017308AC
:1006A400031D03105D2B730803195D2B0310F20C5B
:1006B400F10CF30B582B7B1B711C672B031C672B52
:1006C400F10A0319F20AF21B7E2BFA1F812BF2099D
:1006D400F109F10A0319F20A812BF201F101812BCC
:1006E4007B14FB1F842BF201FA1F842BFF30F200D2
:1006F400F100FA0DF20C842B0130FC00862B003043
:10070400FC00862BFF30FC00FC0803198A2B812196
:0A0714007108F0007208F1000800FF
:10071E00DA208A110A128000840AD90A0319DA0A29
:08072E00F003031D8F2B0800EE
:10073600831603138710831212150C309D040800CC
:10074600831603130711831212150C309704080041
:10075600803083120313F000803068067002031D98
:10076600B62B6708003C0318CD2B07148711803081
:10077600F000803068067002031DC32B6708FF3C3B
:100786000318C92BFF30EB00F421CC2B6708EB00D4
:10079600F421072C00306806031DD32B00306706B2
:1007A600031DDB2B07148715E630EB00F421072C1D
:1007B60080306806F00080307002031DE42B0030A4
:1007C60067020318072C0710871580306806F000AB
:1007D6008030FF3A7002031DF22B013067020318C6
:1007E600F82BFF30EB00F421072C6708003CF000E3
:1007F6006808031C013EF101F1027008E700710868
:10080600E8007008EB00F4218030F00080306A06C2
:100816007002031D102C6908003C0318272C87164C
:1008260007138030F00080306A067002031D1D2C0D
:100836006908FF3C0318232CFF30EB008E21262C81
:100846006908EB00F421612C00306A06031D2D2C8B
:1008560000306906031D352C87160717E630EB00B6
:100866008E21612C80306A06F00080307002031DF4
:100876003E2C003069020318612C8712071780305E
:100886006A06F0008030FF3A7002031D4C2C0130DE
:1008960069020318522CFF30EB008E21612C690887
:1008A600003CF0006A08031C013EF101F1027008E9
:0E08B600E9007108EA007008EB00F421080068
:0C08C400831203139B011D129D120800FB
:0C08D00083120313950117129712080001
:1008DC0083120313A101A201A301A401A501A60186
:1008EC00A701A801C830A900AA01AB01AC01AD0158
:1008FC00AE01AF01B0017F30B1008530B20083167C
:10090C008501FF30860087018801FF308900831242
:10091C0012149210633083169200682412149210F1
:10092C00633083169200622407148711871607130D
:10093C00A3239B23C830EB00F421C830EB008E219D
:10094C0086100611861106128612071207128618D7
:10095C00B12C0314B22C0310003003180130B50075
:10096C00B6010619BB2C0314BC2C03100030031861
:10097C000130B300B4018619C52C0314C62C031026
:10098C00003003180130B700B801061ACF2C03143D
:10099C00D02C0310003003180130BB00BC01861AA8
:1009AC00D92C0314DA2C0310003003180130B900D1
:1009BC00BA0100303606031DE52C01303506031D47
:1009CC002B2D00303406031DED2C01303306031D96
:1009DC002B2D00303806031DF52C01303706031D76
:1009EC002B2D00303C06031DFD2C01303B06031D56
:1009FC002B2D00303A06031D052D01303906031D41
:100A0C002B2DE701E801E901EA01AB2307160330BE
:100A1C00FB008A30FC005530FD00FD0B132DFC0B48
:100A2C00132DFB0B132D0000000007120330FB00ED
:100A3C008A30FC005530FD00FD0B222DFC0B222DC5
:100A4C00FB0B222D000000000C2D2108A500220814
:100A5C00A6002308A7002408A8003508F0003608D3
:100A6C00F100F00DF10D70103308F0073408031885
:100A7C00013EF1077008DB007108DC003B08F00058
:100A8C003C08F100FF30F400FF30F50055207008F1
:100A9C00DB0771080318013EDC073908F0003A083F
:100AAC00F100FE30F400FF30F500552070085B07B4
:100ABC00F2005C080318013E7107F3003308350798
:100ACC00F00036080318013E3407F1003708F00730
:100ADC0038080318013EF1073B08F0073C080318DF
:100AEC00013EF10739087007F40071080318013E44
:100AFC003A07F5007208F0007308F100C3228F2248
:100B0C007008A1007108A2007208A3007308A40069
:100B1C002F08F4003008F5003108F6003208F70011
:100B2C002E227008BD007108BE007208BF00730849
:100B3C00C000F401F501F601F7012108F0002208CC
:100B4C00F1002308F2002408F300AD220130031D4C
:100B5C000030F00070080319B72DC901CA01CB0190
:100B6C00CC014908F0004A08F1004B08F2004C088F
:100B7C00F3002108F4002208F5002308F6002408ED
:100B8C00F700E1204D08F4004E08F5004F08F60080
:100B9C005008F7002E227008C9007108CA007208AC
:100BAC00CB007308CC002508F4002608F5002708B4
:100BBC00F6002808F7002108F0002208F1002308AD
:100BCC00F2002408F3002C235108F4005208F5001D
:100BDC005308F6005408F7002E227008DB00710849
:100BEC00DC007208DD007308DE005B08D5005C08D1
:100BFC00D6005D08D7005E08D8003D08F0003E081E
:100C0C00F1003F08F2004008F3004908F4004A08DC
:100C1C00F5004B08F6004C08F700E1205B08F400E7
:100C2C005C08F5005D08F6005E08F700E12070082E
:100C3C00E3007108E4007208E5007308E60063083D
:100C4C00C3006408C4006508C5006608C60029080E
:100C5C00F0002A08F1008F227008DF007108E00014
:100C6C007208E1007308E2006308F4006408F50000
:100C7C006508F6006608F7005F08F0006008F100F0
:100C8C006108F2006208F3002C2332237008DB00A9
:100C9C007108DC005B08C1005C08C2005F08F00052
:100CAC006008F1006108F2006208F3006308F400C8
:100CBC006408F5006508F6006608F700E1203223A9
:100CCC007008C7007108C8005B08E7005C08E80002
:100CDC007008E9007108EA00AB232B08F0002C081F
:100CEC00F1002D08F2002E08F3000030F400003063
:100CFC00F5000030F6007F30F700E1207008AB0003
:100D0C007108AC007208AD007308AE00AC2C8D2ECF
:02400E004A2F37
:00000001FF
